:020000040000FA
:060000000A128A110C280F
:10000800FE00030EF2000A08F3000A128A111428EF
:100018000A128A110F28F80183010A128A11482846
:10002800831203138C1D19281A282B288C110A12E5
:100038008A1194200A128A11F1007108F8008312BB
:10004800031308080A128A11A4200A128A110B1C29
:100058002E282F28412883120313061C34283528FC
:100068003A280130F100710888070B10861C3D28DA
:100078003E284128013088020B1073088A00720E4E
:100088008300FE0E7E0E09000A128A1164200A12ED
:100098008A11F401F501F60124300A128A117E2032
:1000A8000A128A11033083120313A1009730A000AB
:1000B800A00B5C28A10B5C2856280A128A110C2870
:1000C80020308316031385008801831203138801E7
:1000D80003308316031386008312031386018316E5
:1000E800031788018901C8308B0003308316031376
:1000F80096000800F700831603138712771D8528DA
:1001080086288A287608940087158E28740876042D
:10011800940087117708750483120313940008006C
:100128000A128A119D200A128A11831203131308D6
:10013800080083160313141CA228A3289D2808006E
:0C014800F00070088312031393000800FD
:04400E00D420FF3F7C
:00000001FF
