:020000040000FA
:060000000A128A110C280F
:10000800FE00030EF1000A08F2000A128A11F32911
:100018000A128A110F28F801F901FA018312031351
:10002800A701A801A90183010A128A11F02800304A
:100038000A128A11B2200A128A1134308312031369
:10004800A100F130A000A00B2728A10B272803301E
:100058000A128A11B0210A128A110D308312031371
:10006800A100FB30A000A00B3728A10B37280330D4
:100078000A128A11B0210A128A111D308312031341
:10008800A1009030A000A00B4728A10B4728000032
:1000980003300A128A11B0210A128A1138300A1262
:1000A8008A11B0210A128A1108300A128A11B02165
:1000B8000A128A1101300A128A11B0210A128A1111
:1000C80006300A128A11B0210A128A1108000A128F
:1000D8008A1113220A128A11F701F70A01300A124B
:1000E8008A114D210A128A1101300A128A1124211B
:1000F8000A128A11053083120313A3002308F7009C
:1001080001300A128A114D210A128A1104300A128A
:100118008A1124210A128A110A3083120313A300B8
:100128002308F70001300A128A114D210A128A1198
:1001380007300A128A1124210A128A1115308312F3
:100148000313A5004B30A400BD30A300A30BAA28BD
:10015800A40BAA28A50BAA28B1280800F300731C31
:10016800B628B728BB28831203130814BE288312A5
:1001780003130810F31CC128C228C4288814C528F2
:100188008810731DC828C928CB280815CC28081141
:10019800F31DCF28D028D2288815D3288811731E9C
:1001A800D628D728D9280816DA280812F31EDD28F9
:1001B800DE28E0288816E1288812731FE428E5283D
:1001C800E7280817E8280813F31FEB28EC28EE287F
:1001D8008817EF28881308000A128A1173210A1257
:1001E8008A1100300A128A11E0210A128A110A12B1
:1001F8008A111B200A128A110A128A116B200A120C
:100208008A11F90100300A128A1192210A128A1100
:100218007A0883120313A6002608A900F801F80A31
:1002280001300A128A1192210A128A117A0883125D
:100238000313A6002608A80000290A128A110C2810
:1002480083120313A200A001A1013F29200822075D
:1002580084000A128A1105220A128A110A128A11C6
:10026800CA210A128A11013083120313A007031846
:10027800A10A0030A1072008220784000A128A1167
:1002880005220A128A11003A031D4B294C292A29F2
:10029800080083120313A1002103031D54295529C3
:1002A800612977087F3EA0002008A20022080A12D0
:1002B8008A11B0210A128A11722902302106031DFF
:1002C8006629672972297708BF3EA0002008A20086
:1002D80022080A128A11B0210A128A1108000F3066
:1002E80083160313850083120313850183160313F2
:1002F800870183120313870183160313880183126E
:1003080003138801831603138901831203138901D8
:100318000F3083160317880089010800F500750857
:10032800F300F30DF30D831203131F087306C3398B
:1003380073069F000630F4003030F300F30BA22957
:10034800F40BA2290000831203139F149F18AD29F0
:10035800AE29AF299F140800F60083120313091071
:1003680076080A128A11B2200A128A11831203131C
:1003780089140B30F5006230F400F40BC129F50B39
:10038800C12900008312031389100800F5008312A5
:100398000313091475080A128A11B2200A128A1165
:1003A8008312031389141A30F400F40BD9290000BE
:1003B8008312031389100800F300831603130C1724
:1003C800831203130C138B170B1783309F00730CC6
:1003D80083160313031C9F1303189F170800831227
:1003E80003130C1FF829F929FE291E08F0007008CC
:1003F800FA000C1372088A00710E8300FE0E7E0E3E
:10040800090002308A000408840A82070034543440
:100418003134003454343234003450340034013030
:0C0428000A128A11B0210A128A11080081
:04400E00D120FF3F7F
:00000001FF
