:020000040000FA
:060000000A128A110C280F
:10000800FE00030EF1000A08F2000A128A1176288F
:100018000A128A110F28F501F60183010A128A11C2
:1000280039281930750203181A281B282128831229
:10003800031309148910091138281A307502031C92
:100048002628272833282430750203182C282D2821
:1000580033288312031309108914091138288312CD
:10006800031309108910091508000A128A11512072
:100078000A128A110A128A1188200A128A110A128F
:100088008A1164200A128A110A128A1115200A128A
:100098008A1143280A128A110C288316031389012E
:1000A8008312031389010130831603138500831219
:1000B800031385010130831603178800890108009E
:1000C8000630F4003030F300F30B6828F40B68288E
:1000D8000000831203139F149F187328742875282F
:1000E8009F140800831203130C1F7B287C28812887
:1000F8001E08F0007008F5000C1372088A00710ED3
:100108008300FE0E7E0E0900831603130C1783125C
:1001180003130C138B170B1703309F00831603135D
:040128009F0108002B
:04400E00D120FF3F7F
:00000001FF
