:020000040000FA
:060000000A128A110C280F
:10000800FE00030EF1000A08F2000A128A11802885
:100018000A128A110F28F501F60183010A128A11C2
:1000280039282C30750203181A281B282128831216
:10003800031309148910091138282C307502031C80
:100048002628272833283E30750203182C282D2807
:1000580033288312031309108914091138288312CD
:10006800031309108910091508000A128A1155206E
:100078000A128A110A128A1192200A128A110A1285
:100088008A116E200A128A117508831203138800D8
:100098000A128A1115200A128A1143280A128A1193
:1000A8000C28831603138901831203138901053071
:1000B8008316031385008312031385018316031324
:1000C80088018312031388010130831603178800FF
:1000D800890108000D30F400FB30F300F30B72289F
:1000E800F40B72287728831203139F149F187D2816
:1000F8007E287F289F140800831203130C1F85286D
:1001080086288B281E08F0007008F5000C1372086A
:100118008A00710E8300FE0E7E0E090083160313FB
:100128000C17831203130C138B170B1703309F0044
:0A0138001030831603139F00080027
:04400E00D120FF3F7F
:00000001FF
