:020000040000FA
:060000000A128A110C280F
:10000800FE00030EF2000A08F3000A128A111528EE
:100018000A128A110F28F801F90183010A128A11BC
:100028003C28831203130C1F1A281B2820281E089B
:10003800F1007108F8000C138C1D2328242835289A
:100048008C110A128A11E7200A128A11F10071082C
:10005800F9008312031308080A128A11F7200A12FA
:100068008A1173088A00720E8300FE0E7E0E090044
:100078000A128A1185200A128A11F401F501F60183
:1000880024300A128A11C2200A128A110A128A110D
:10009800D8200A128A110A128A11A6200A128A1175
:1000A80078088312031388000A128A1161200A1241
:1000B8008A114F280A128A110C282C30780203184A
:1000C800662867286D2883120313091489100911FB
:1000D80084282C307802031C722873287F283E302D
:1000E80078020318782879287F28831203130910C7
:1000F800891409118428831203130910891009151A
:1001080008008316031386018312031386018316DE
:100118000313890183120313890121308316031302
:100128008500831203138501831603138801831244
:100138000313880101308316031788008901C8302A
:100148008B000800831203139F18AB28AC28C12822
:100158000D30F500FB30F400F40BB028F50BB02897
:10016800B528831203139F140D30F500FB30F400FB
:10017800F40BBC28F50BBC28C1280800F70083162F
:1001880003138712771DC928CA28CE287608940039
:100198008715D228740876049400871177087504A7
:1001A8008312031394000800831603130C17831299
:1001B80003130C138B170B1703309F001030831693
:1001C80003139F0008000A128A11F0200A128A11EC
:1001D800831203131308080083160313141CF5284D
:1001E800F628F0280800F000700883120313930023
:0201F8000800FD
:04400E00D120FF3F7F
:00000001FF
