:020000040000FA
:060000000A128A110C280F
:10000800FE00030EF5000A08F6000A128A114228BB
:100018000A128A110F28F001F101F201F30183019C
:100028000A128A115E282030831603138500831272
:1000380003138501183083160313870083120313F3
:100048008701831603138801831203138801033081
:10005800831603138600831203138601831603177E
:1000680088018901C8308B0003308316031396007A
:100078009401343083120313940008000B1C4528A4
:100088004628572883120313061C4B284C2850284F
:100098000130F4007408F307861C532854285628A6
:1000A8000130F3020B1076088A00750E8300FE0EED
:1000B8007E0E09000A128A1117200A128A11730883
:1000C8008312031388007308930083160313141C08
:1000D8006E286F286928831203131308F70077081E
:0A00E800F20063280A128A110C28A6
:04400E00D120FF3F7F
:00000001FF
