:020000040000FA
:060000000A128A110C280F
:10000800FE00030EF1000A08F2000A128A111528F0
:100018000A128A110F28F301F40183010A128A11C6
:1000280049280B1C182819282A2883120313061C90
:100038001E281F2823280130F00070088807861C16
:10004800262827282928013088020B1072088A00E0
:10005800710E8300FE0E7E0E0900831603138801BD
:100068008312031388010330831603138600831257
:10007800031386018316031788018901A8308B00B2
:10008800033083160313960008000A128A113120E0
:0C0098000A128A114E280A128A110C2844
:04400E00D120FF3F7F
:00000001FF
