:020000040000FA
:060000000A128A110C280F
:10000800FE00030EF0000A08F1000A128A114B2DB7
:100018000A128A110F28FB0183133A3084005230E8
:100028000A128A113C250A128A1183010A128A11BE
:10003800562A83120313B4002630AA002A08AD00FA
:100048008E292530350603192A282B283728350804
:10005800AA00340884002A08831380000130AA000B
:100068002A08B4078E29B201B301AF01250884001C
:100078000A128A1153240A128A110A128A11212596
:100088000A128A11031C49284A288A288312031352
:10009800B201B3010A30F2000030F30083120313F7
:1000A8003308F5003208F4000A128A117B240A1278
:1000B8008A11730883120313B3007208B20025086B
:1000C80084000A128A1153240A128A11D03EAA0007
:1000D800FF3003180030AB002A08B2070318B30A30
:1000E8002B08B3070130AA002A08A50725088400B1
:1000F8000A128A1153240A128A110A128A11212516
:100108000A128A11031889288A284E280130831276
:100118000313A507FF30250784000A128A11532408
:100128000A128A11B500AA00AB012B08003A03197C
:100138009E288E292A08003A0319A029643A03192F
:10014800A9280D3A0319A9288E292D08840083139C
:100158000008B000840A0008B1000230AA002A088A
:10016800AD07B11FB828B928C2280330AA002A0849
:10017800AF04B009B109B00A0319B10AB501B50A4B
:100188003508AA002A07013E84000A128A1153245E
:100198000A128A11AB000A128A1153240A128A1110
:1001A800AC002C083102031DDB282B083002031891
:1001B800DE28DF28E028EA280130AA002A08B50747
:1001C80005303506031DE928EA28C4283208330417
:1001D8000319EF28F028FC282F0803390319F528FC
:1001E800F628FC28FF30B2070318B30AFF30B3071C
:1001F8003308803A803C031D03293208350203186E
:10020800062907291329831203133508AA00AB010D
:100218002A08B2022B08031CB303B302172983125E
:100228000313B201B3013208330403191C291D2931
:1002380034292030AA00340884002A088313800057
:100248000130AA002A08B407FF30B2070318B30A1E
:10025800FF30B30732083304031D332934291D291D
:100268002F080339031939293A2945292D30AA00BD
:10027800340884002A08831380000130AA002A0861
:10028800B4073508AA002A08AE0085290A30A0005C
:100298000030A1002E08AA002A07013E84000A1295
:1002A8008A1153240A128A11F2000A128A1153245D
:1002B8000A128A11F3003108F5003008F4000A1216
:1002C8008A1154230A128A11730883120313A30094
:1002D8007208A2000A128A11D6230A128A118312FE
:1002E80003132008303EAB002B08B5003508AA00E0
:1002F800340884002A08831380000130AA002A08E1
:10030800B407FF30AA002A08AE072E0A031D8D295C
:100318008E294A290130A507FF30250784000A12D3
:100328008A1153240A128A11AA002A08B50035082E
:10033800031D9F29A02925283408840083138001E0
:100348000800F601F60A01300A128A11A0240A12DE
:100358008A111330F5008030F6000A128A110E2334
:100368000A128A11073083120313B6003608F60002
:1003780001300A128A11A0240A128A111730F500D6
:100388008030F6000A128A110E230A128A110D30E3
:1003980083120313B6003608F60001300A128A11D8
:1003A800A0240A128A111B30F5008030F6000A12C8
:1003B8008A110E230A128A110B3083120313B60016
:1003C8003608A5003D08A7003C08A6003B08A90080
:1003D8003A08A80042300A128A111D200A128A110E
:1003E800F601F60A02300A128A11A0240A128A11AA
:1003F8004230F5000030F6000A128A110E230A1264
:100408008A111F3083120313B6003608A50041086D
:10041800B700B8013708A6003808A70042300A120A
:100428008A111D200A128A11073083120313B6009D
:100438003608F60002300A128A11A0240A128A111C
:100448004230F5000030F6000A128A110E230A1213
:100458008A111F3083120313B6003608A50040081E
:10046800B700B8013708A6003808A70042300A12BA
:100478008A111D200A128A110D3083120313B60047
:100488003608F60002300A128A11A0240A128A11CC
:100498004230F5000030F6000A128A110E230A12C3
:1004A8008A1108000A128A11DE240A128A110A1215
:1004B8008A11C3220A128A11F201F301F4012030D1
:1004C8000A128A11F5240A128A11831203130610DC
:1004D80000300A128A1152250A128A110A128A1148
:1004E80033250A128A1183120313B9003908FB0055
:1004F80006140A128A1112240A128A110A128A117F
:10050800A5210A128A1183120313861000300A12D9
:100518008A1152250A128A110A128A1133250A12DF
:100528008A1183120313B9003908C10086140A120C
:100538008A11A5210A128A118312031306110030A9
:100548000A128A1152250A128A110A128A113325AF
:100558000A128A1183120313B9003908C00006155C
:100568000A128A11A5210A128A1183120313BC01E7
:10057800BD01BA01BB01692A0A128A110C28003090
:100588000A128A1198230A128A113430F700F130BE
:10059800F600F60BCD2AF70BCD2AD22A03300A1221
:1005A8008A11C4240A128A110D30F700FB30F600B4
:1005B800F60BDC2AF70BDC2AE12A03300A128A112F
:1005C800C4240A128A111D30F7009130F600F60B88
:1005D800EB2AF70BEB2A03300A128A11C4240A12F9
:1005E8008A1138300A128A11C4240A128A110C306E
:1005F8000A128A11C4240A128A1101300A128A11B5
:10060800C4240A128A1106300A128A11C4240A1252
:100618008A11080083120313A001A101372B2008B7
:100628007507F8007608F7000318F70AA01F1D2BB6
:10063800F7037708F900790883120313FF00780895
:1006480084000A128A1149240A128A110A128A118C
:100658000B250A128A11013083120313A00703180D
:10066800A10A0030A10720087507F8007608F700EE
:100678000318F70AA01F412BF7037708F900790838
:1006880083120313FF00780884000A128A11492490
:100698000A128A11003A031D522B532B132B080000
:1006A800F701F8017208730403195B2B5C2B932B79
:1006B800F901F90A6A2B01300310F20DF30DFF3E20
:1006C800031D602B0130F6007608F907F31F6D2B28
:1006D8006E2B5F2B01300310F70DF80DFF3E031D45
:1006E8006F2B73087502031D7B2B72087402031CA1
:1006F8007E2B7F2B862B7208F4027308031CF503EC
:10070800F502771401300310F30CF20CFF3E031DC1
:10071800872B0130F902031D922B932B6E2B78083F
:10072800F3007708F2000800F200721C9C2B9D2B46
:10073800A12B831203130814A42B8312031308108C
:10074800F21CA72BA82BAA2B8814AB2B8810721D80
:10075800AE2BAF2BB12B0815B22B0811F21DB52B00
:10076800B62BB82B8815B92B8811721EBC2BBD2B44
:10077800BF2B0816C02B0812F21EC32BC42BC62B86
:100788008816C72B8812721FCA2BCB2BCD2B0817A4
:10079800CE2B0813F21FD12BD22BD42B8817D52B95
:1007A8008813080083120313200821040319DD2B82
:1007B800DE2B0D2CA401A40AEC2B01300310A00D94
:1007C800A10DFF3E031DE22B0130FA007A08A407B1
:1007D800A11FEF2BF02BE12B21082302031DF62B81
:1007E80020082202031CF92BFA2B002C2008A20255
:1007F8002108031CA303A30201300310A10CA00CC1
:10080800FF3E031D012C0130A402031D0C2C0D2CEE
:10081800F02B2308A1002208A0000800FB307B026F
:10082800031C172C182C2E2C053083120313BC0024
:100838000030BD00BA01BB01482C7B08CE3EF20057
:100848007208FB00013083120313BC070318BD0AAA
:100858000030BD0732307B020318332C342C212C96
:10086800422C7B08FB3EF2007208FB000130831229
:100878000313BA070318BB0A0030BB0705307B0215
:100888000318472C482C352C0800FF1B532C8313C6
:100898007F1883170008840A0319FF0A0800043028
:1008A8008A000408840A82070034013400340A34B8
:1008B800003464340034E8340334103427342534E5
:1008C800313469342E3425343134693400345334A6
:1008D80031343A340034533432343A3400345334F3
:1008E80033343A3400342534333469340034F6016F
:1008F800F701721C802C812C872C7408F6070318CA
:10090800F70A7508F70701300310F40DF50DFF3EDF
:10091800031D882C01300310F30CF20CFF3E031D5D
:100928008F2C72087304031D9A2C9B2C7D2C77083E
:10093800F3007608F2000800F8007803031DA52CE0
:10094800A62CB22C76087F3EF7007708F9007908C4
:100958000A128A11C4240A128A11C32C023078069A
:10096800031DB72CB82CC32C7608BF3EF7007708B8
:10097800F90079080A128A11C4240A128A11080097
:10098800F50083120313091075080A128A119823B7
:100998000A128A118312031389140B30F40062308F
:1009A800F300F30BD52CF40BD52C000083120313A2
:1009B8008910080083160313860107308312031376
:1009C8008600831603138801831203138801831694
:1009D800031389018316031788018901C0308B002E
:1009E8000800F500831603138712751DFC2CFD2CD7
:1009F800012D740894008715052D7208740494005D
:100A08008711750873048312031394000800F40017
:100A180083120313091474080A128A1198230A12FC
:100A28008A118312031389141A30F300F30B1A2D59
:100A380000008312031389100800F300F2013A3012
:100A480073020318282D292D312D30307302031C11
:100A58002E2D2F2D312DF201F20A720C08000A12E8
:100A68008A1144250A128A118312031313080800F5
:100A780064008001840A04060319003404063D2D2D
:100A880083160313141C492D4A2D442D08007108A0
:100A98008A00700E8300FE0E7E0E0900F2007208B6
:080AA800831203139300080000
:04400E00D423FF3F79
:00000001FF
