:020000040000FA
:060000000A128A110C280F
:10000800FE00030EF0000A08F1000A128A11062CFD
:100018000A128A110F280A128A110D240A128A114B
:10002800CE008313383084004E300A128A11F72329
:100038000A128A11FA01FB0183010A128A11932A12
:1000480083120313B1002730A9002908AC00F72850
:10005800253032060319312832283E283208A900F3
:10006800310884002908831380000130A900290879
:10007800B107F728AD010130A607FF302607840035
:100088000A128A1184230A128A11B200A900AA014D
:100098002A08003A03195128F7282908003A0319B1
:1000A8000929643A03195C280D3A03195C28F728D2
:1000B8002C08840083130008AF00840A0008B000ED
:1000C8000230A9002908AC07B01F6B286C287528D6
:1000D8000330A9002908AD04AF09B009AF0A031914
:1000E800B00AB201B20A3208A9002907013E840009
:1000F8000A128A1184230A128A11AA000A128A1182
:1001080084230A128A11AB002B083002031D8E28A3
:100118002A082F0203189128922893289D28013035
:10012800A9002908B20705303206031D9C289D281E
:1001380077282D0803390319A228A328AE282D30C3
:10014800A900310884002908831380000130A90020
:100158002908B1073208A9002908AE00EE280A309C
:10016800A0000030A1002E08A9002907013E840044
:100178000A128A1184230A128A11F2000A128A11B9
:1001880084230A128A11F3003008F5002F08F400BE
:100198000A128A114F220A128A1173088312031352
:1001A800A3007208A2000A128A1113230A128A11E4
:1001B800831203132008303EAA002A08B20032082E
:1001C800A900310884002908831380000130A900A0
:1001D8002908B107FF30A9002908AE072E0A031D18
:1001E800F628F728B3280130A607FF302607840031
:1001F8000A128A1184230A128A11A9002908B20056
:100208003208031D082909292C2831088400831382
:1002180080010800F601F60A01300A128A11A323A8
:100228000A128A110B30F5008030F6000A128A1182
:1002380009220A128A11073083120313B300330804
:10024800F60001300A128A11A3230A128A110F300C
:10025800F5008030F6000A128A1109220A128A1162
:100268000D3083120313B3003308F60001300A126D
:100278008A11A3230A128A111330F5008030F60080
:100288000A128A1109220A128A11173083120313DB
:10029800B3003308A6004E08B400B5013408A7001F
:1002A8003508A8003A300A128A1124200A128A1145
:1002B800F601F60A02300A128A11A3230A128A11D9
:1002C8003A30F5000030F6000A128A1109220A12A3
:1002D8008A11173083120313B3003308A6004E089F
:1002E800B400B5013408A7003508A8003A300A124E
:1002F8008A1124200A128A11073083120313B300CB
:100308003308F60002300A128A11A3230A128A114E
:100318003A30F5000030F6000A128A1109220A1252
:100328008A11173083120313B3003308A6004E084E
:10033800B400B5013408A7003508A8003A300A12FD
:100348008A1124200A128A110D3083120313B30074
:100358003308F60002300A128A11A3230A128A11FE
:100368003A30F5000030F6000A128A1109220A1202
:100378008A11080000300A128A11D5220A128A113D
:100388003430F700F130F600F60BC829F70BC8290E
:10039800CD2903300A128A11C7230A128A110D3097
:1003A800F700FB30F600F60BD729F70BD729DC2925
:1003B80003300A128A11C7230A128A111D30F70066
:1003C8009130F600F60BE629F70BE62903300A12FE
:1003D8008A11C7230A128A1138300A128A11C723D0
:1003E8000A128A110C300A128A11C7230A128A11BA
:1003F80001300A128A11C7230A128A1106300A121A
:100408008A11C7230A128A11080083120313A00154
:10041800A101322A20087507F8007608F7000318AA
:10042800F70AA01F182AF7037708F900790883123A
:100438000313FF00780884000A128A117A230A122B
:100448008A110A128A11E1230A128A1101308312D1
:100458000313A0070318A10A0030A1072008750795
:10046800F8007608F7000318F70AA01F3C2AF703DC
:100478007708F900790883120313FF0078088400CD
:100488000A128A117A230A128A11003A031D4D2A88
:100498004E2A0E2A0800F701F8017208730403199E
:1004A800562A572A8E2AF901F90A652A01300310BB
:1004B800F20DF30DFF3E031D5B2A0130F6007608AE
:1004C800F907F31F682A692A5A2A01300310F70D21
:1004D800F80DFF3E031D6A2A73087502031D762A6C
:1004E80072087402031C792A7A2A812A7208F40293
:1004F8007308031CF503F502771401300310F30C9D
:10050800F20CFF3E031D822A0130F902031D8D2AD9
:100518008E2A692A7808F3007708F20008000A1280
:100528008A114F230A128A110A128A11BE210A124D
:100538008A110A128A11FF230A128A110A128A11D1
:100548000E210A128A118312031306100330831234
:100558000313B7009730B600B60BB02AB70BB02A12
:1005680083160313141CB92ABA2AC42A141CBD2AD8
:10057800BE2ABA2A831203131308B6003608CE001F
:10058800033083120313B7009730B600B60BCA2A9C
:10059800B70BCA2A831203130614A22A0A128A1155
:1005A8000C28F200721CD92ADA2ADE2A83120313D5
:1005B8000814E12A831203130810F21CE42AE52A1E
:1005C800E72A8814E82A8810721DEB2AEC2AEE2AFA
:1005D8000815EF2A0811F21DF22AF32AF52A8815C0
:1005E800F62A8811721EF92AFA2AFC2A0816FD2A08
:1005F8000812F21E002B012B032B8816042B8812DD
:10060800721F072B082B0A2B08170B2B0813F21F36
:100618000E2B0F2B112B8817122B8813080083120F
:1006280003132008210403191A2B1B2B4A2BA5019D
:10063800A50A292B01300310A00DA10DFF3E031DB3
:100648001F2B0130A4002408A507A11F2C2B2D2B3C
:100658001E2B21082302031D332B20082202031C12
:10066800362B372B3D2B2008A2022108031CA3039D
:10067800A30201300310A10CA00CFF3E031D3E2B6A
:100688000130A502031D492B4A2B2D2B2308A1005D
:100698002208A000080083160313850183120313A0
:1006A8008501831603138601831203138601103014
:1006B800831603138700831203138701831603131A
:1006C8008801831203138801831603138901831297
:1006D80003138901831603178801890183160313FD
:1006E800940132308312031394000800FF1B842BFB
:1006F80083137F1883170008840A0319FF0A080068
:1007080003308A000408840A820700340134003464
:100718000A34003464340034E834033410342734A1
:10072800533431343A340034533432343A340034A4
:10073800533433343A340034253464340034F80004
:100748007803031DA82BA92BB52B76087F3EF7004D
:100758007708F90079080A128A11C7230A128A1140
:10076800C62B02307806031DBA2BBB2BC62B760886
:10077800BF3EF7007708F90079080A128A11C723E3
:100788000A128A110800F50083120313091075086C
:100798000A128A11D5220A128A11831203138914A4
:1007A8000B30F4006230F300F30BD82BF40BD82B8A
:1007B80000008312031389100800F4008312031346
:1007C800091474080A128A11D5220A128A1183128E
:1007D800031389141A30F300F30BF02B0000831273
:1007E80003138910080064008001840A04060319B1
:1007F80000340406F82B01300A128A11C7230A12A2
:100808008A11080071088A00700E8300FE0E7E0EA1
:04081800090001349E
:04400E00D123FF3F7C
:00000001FF
