:020000040000FA
:100000000A128A11EF2F00308A000408840A82073E
:10001000003445346E34633465346E34643465348E
:10002000723420346C34613420346C34653464347C
:0200300000349A
:100AC40014340134F0007008831203139900831660
:100AD4000313981C6E2D6F2D692D080083160313C4
:100AE4008801831203138801D83083160313870007
:100AF400831203138701080001300A128A118E251C
:100B04000A128A118230F400DD30F300F30B882DD1
:100B1400F40B882D8D2D0800F200A02D720884009E
:100B24000A128A1103200A128A110A128A116425F0
:100B34000A128A110130F1007108F2077208840068
:100B44000A128A1103200A128A11003A031DAB2DDE
:100B5400AC2D902D08000A128A1170250A128A11F0
:100B6400003083120313A3000130A2008630A100D9
:100B7400A030A0000A128A11D9250A128A11003065
:100B840083120313A9000030A8002530A700803089
:100B9400A6000A128A1114270A128A110A128A114B
:100BA4007E250A128A11D02D0A128A110028831276
:100BB40003132008A4002108A5002208A600230886
:100BC400A70002300310A40DA50DA60DA70DFF3E2E
:100BD400031DE42D2708F3002608F2002508F10080
:100BE4002408F0000030F7007A30F6001230F500E7
:100BF4000030F4000A128A1111260A128A117008B0
:100C0400FF3E8316031393009401283083120313C9
:100C1400940083160313910187150716080000300A
:100C2400FC000030FB000030FA000030F9007308CB
:100C34007204710470040319202E212E6E2EFD01FE
:100C4400FD0A312E0130F8000310F00DF10DF20D04
:100C5400F30DF80B262E0130F8007808FD07F31F7A
:100C6400342E352E242E0130F8000310F90DFA0D20
:100C7400FB0DFC0DF80B372E73087702031D4C2E69
:100C840072087602031D4C2E71087502031D4C2E4A
:100C940070087402031C4F2E502E5F2E7008F4024D
:100CA4007108031C710FF5027208031C720FF6021F
:100CB4007308031C730FF702791401300310F30C4B
:100CC400F20CF10CF00CFF3E031D602E0130FD020E
:100CD400031D6D2E6E2E352E7C08F3007B08F2006A
:100CE4007A08F1007908F000080083120313A101C7
:100CF400F31F7D2E7E2E8B2EF009F109F209F309E4
:100D0400F00A0319F10A0319F20A0319F30AA101FB
:100D1400A10AF71F8E2E8F2E9E2EF409F509F609CF
:100D2400F709F40A0319F50A0319F60A0319F70A6D
:100D34000130F8007808A1060030A5000030A400B6
:100D44000030A3000030A200730872047104700420
:100D54000319AD2EAE2EFB2EA001A00ABE2E01302B
:100D6400F8000310F00DF10DF20DF30DF80BB32E96
:100D74000130F8007808A007F31FC12EC22EB12E4F
:100D84000130F8000310A20DA30DA40DA50DF80B5E
:100D9400C42E73087702031DD92E72087602031D30
:100DA400D92E71087502031DD92E70087402031C14
:100DB400DC2EDD2EEC2E7008F4027108031C710F7A
:100DC400F5027208031C720FF6027308031C730FFA
:100DD400F702221401300310F30CF20CF10CF00CA6
:100DE400FF3E031DED2E0130A002031DFA2EFB2E43
:100DF400C22E21080319FF2E002F0B2FA209A309CD
:100E0400A409A509A20A0319A30A0319A40A031928
:100E1400A50A2508F3002408F2002308F10022089B
:100E2400F0000800831203132608AA002708AB0069
:100E34002808AC002908AD0006300310AA0DAB0D3C
:100E4400AC0DAD0DFF3E031D1F2F2D08F3002C0824
:100E5400F2002B08F1002A08F0002608AE0027084B
:100E6400AF002808B0002908B10006300310AE0D09
:100E7400AF0DB00DB10DFF3E031D382F0030B20091
:100E84001230B3007A30B4000030B5002E08B2023C
:100E94002F08031C2F0F4F2F502FB3023008031CB1
:100EA400300F552F562FB4023108031C310F5B2F1E
:100EB4005C2FB5023508F7003408F6003308F50056
:100EC4003208F4000A128A1177260A128A1171086C
:100ED400FA007008F90001307A020030031979022F
:100EE400031C752F762FD22F831203132608AA0012
:100EF4002708AB002808AC002908AD000430031013
:100F0400AA0DAB0DAC0DAD0DFF3E031D812F2D08B9
:100F1400F3002C08F2002B08F1002A08F000260840
:100F2400AE002708AF002808B0002908B10004303B
:100F34000310AE0DAF0DB00DB10DFF3E031D9A2F82
:100F44000030B2001230B3007A30B4000030B50083
:100F54002E08B2022F08031C2F0FB12FB22FB30299
:100F64003008031C300FB72FB82FB4023108031C0C
:100F7400310FBD2FBE2FB5023508F7003408F60037
:100F84003308F5003208F4000A128A1177260A128F
:100F94008A117108FA007008F900831603131815F2
:100FA40001307A020030031979020318DA2FDB2F9B
:100FB400EE2F790883160313990018128312031372
:100FC4009817831603131813871707138312031331
:100FD400181683160313981608000A128A1162253C
:100FE4000A128A11B6000A128A1163250A128A119A
:0C0FF400B700B80183010A128A11AD2D6C
:04400E00D520FF3F7B
:00000001FF
