:020000040000FA
:060000000A128A11EF2F25
:100B000014344534F00083160313981C882D892D66
:100B1000832D7008831203139900080083160313B2
:100B20008801831203138801D830831603138700CA
:100B300083120313870108008312031337080A1274
:100B40008A1182250A128A118230F200DD30F1000A
:100B5000F10BA82DF20BA82DAD2D08000A128A1159
:100B60008E250A128A11003083120313A30001306C
:100B7000A2008630A100A030A0000A128A11DA2556
:100B80000A128A11003083120313A9000030A80052
:100B90002530A7008030A6000A128A1115270A12F4
:100BA0008A110A128A119C250A128A11D12D0A1261
:100BB0008A110028831203132008A4002108A5002D
:100BC0002208A6002308A70002300310A40DA50DDB
:100BD000A60DA70DFF3E031DE52D2708F3002608EF
:100BE000F2002508F1002408F0000030F7007A3008
:100BF000F6001230F5000030F4000A128A111226B5
:100C00000A128A117008FF3E8316031393009401A1
:100C10002830831203139400831603139101871560
:100C2000071608000030FC000030FB000030FA001E
:100C30000030F90073087204710470040319212E46
:100C4000222E6F2EFD01FD0A322E0130F800031016
:100C5000F00DF10DF20DF30DF80B272E0130F80019
:100C60007808FD07F31F352E362E252E0130F800AB
:100C70000310F90DFA0DFB0DFC0DF80B382E73085F
:100C80007702031D4D2E72087602031D4D2E71084A
:100C90007502031D4D2E70087402031C502E512E38
:100CA000602E7008F4027108031C710FF5027208BF
:100CB000031C720FF6027308031C730FF7027914FA
:100CC00001300310F30CF20CF10CF00CFF3E031D8D
:100CD000612E0130FD02031D6E2E6F2E362E7C0814
:100CE000F3007B08F2007A08F1007908F0000800B0
:100CF00083120313A101F31F7E2E7F2E8C2EF00989
:100D0000F109F209F309F00A0319F10A0319F20AC9
:100D10000319F30AA101A10AF71F8F2E902E9F2E0F
:100D2000F409F509F609F709F40A0319F50A031994
:100D3000F60A0319F70A0130F8007808A106003016
:100D4000A5000030A4000030A3000030A20073080A
:100D50007204710470040319AE2EAF2EFC2EA00194
:100D6000A00ABF2E0130F8000310F00DF10DF20DB6
:100D7000F30DF80BB42E0130F8007808A007F31F2C
:100D8000C22EC32EB22E0130F8000310A20DA30D07
:100D9000A40DA50DF80BC52E73087702031DDA2EDE
:100DA00072087602031DDA2E71087502031DDA2E11
:100DB00070087402031CDD2EDE2EED2E7008F40286
:100DC0007108031C710FF5027208031C720FF60202
:100DD0007308031C730FF702221401300310F30C85
:100DE000F20CF10CF00CFF3E031DEE2E0130A002C0
:100DF000031DFB2EFC2EC32E21080319002F012FEB
:100E00000C2FA209A309A409A509A20A0319A30A80
:100E10000319A40A0319A50A2508F3002408F200FF
:100E20002308F1002208F0000800831203132608AB
:100E3000AA002708AB002808AC002908AD0006303E
:100E40000310AA0DAB0DAC0DAD0DFF3E031D202F01
:100E50002D08F3002C08F2002B08F1002A08F000FE
:100E60002608AE002708AF002808B0002908B10006
:100E700006300310AE0DAF0DB00DB10DFF3E031DDA
:100E8000392F0030B2001230B3007A30B400003095
:100E9000B5002E08B2022F08031C2F0F502F512F20
:100EA000B3023008031C300F562F572FB4023108FD
:100EB000031C310F5C2F5D2FB5023508F700340895
:100EC000F6003308F5003208F4000A128A11782679
:100ED0000A128A117108FA007008F90001307A02CA
:100EE000003003197902031C762F772FD32F83123A
:100EF00003132608AA002708AB002808AC0029081D
:100F0000AD0004300310AA0DAB0DAC0DAD0DFF3ECE
:100F1000031D822F2D08F3002C08F2002B08F1008E
:100F20002A08F0002608AE002708AF002808B00005
:100F30002908B10004300310AE0DAF0DB00DB10D96
:100F4000FF3E031D9B2F0030B2001230B3007A30F9
:100F5000B4000030B5002E08B2022F08031C2F0F7A
:100F6000B22FB32FB3023008031C300FB82FB92FA4
:100F7000B4023108031C310FBE2FBF2FB502350854
:100F8000F7003408F6003308F5003208F4000A12BE
:100F90008A1178260A128A117108FA007008F9007D
:100FA00083160313181501307A02003003197902F1
:100FB0000318DB2FDC2FEE2F79088316031399001B
:100FC0001812831203139817831603138717071732
:100FD00083120313181683160313981608000A12B7
:100FE0008A1180250A128A11B6000A128A118125F7
:100FF0000A128A11B700B80183010A128A11AE2DB4
:04400E00D520FF3F7B
:00000001FF
