:020000040000FA
:060000000A128A11EF2F25
:100D6C00143401340030831203138C1A0130080040
:100D7C00831203138C1EC32EC42EBE2E1A08080019
:100D8C00F000700883120313990083160313981C48
:100D9C00D02ED12ECB2E080083160313880183127C
:100DAC0003138801D83083160313870083120313AF
:100DBC0087010800831203132A080A128A11C62617
:100DCC000A128A118230F200DD30F100F10BEC2EA8
:100DDC00F20BEC2EF12E08008316031318159A0152
:100DEC0019309900181283120313981783160313E2
:100DFC00181387170713831203131816831603137C
:100E0C00981608000A128A11B8260A128A11003A9A
:100E1C000319112F122F232F0A128A11BE260A1220
:100E2C008A118312031388008230F100DD30F00048
:100E3C00F00B1E2FF10B1E2F232F08000A128A1104
:100E4C00D2260A128A11003083120313A300013038
:100E5C00A2008630A100A030A0000A128A115127EE
:100E6C000A128A110A128A11F2260A128A114530C4
:100E7C0083120313A8002808AA000A128A11E0267C
:100E8C000A128A110A128A1108270A128A113D2F96
:100E9C000A128A110028831203132008A4002108C7
:100EAC00A5002208A6002308A70002300310A40DF9
:100EBC00A50DA60DA70DFF3E031D5C2F2708F30003
:100ECC002608F2002508F1002408F0000030F70095
:100EDC007A30F6001230F5000030F4000A128A1154
:100EEC0089270A128A117008FF3E83160313930098
:100EFC009401283083120313940083160313910179
:100F0C008715071608000030FC000030FB0000308D
:100F1C00FA000030F90073087204710470040319AC
:100F2C00982F992FE62FFD01FD0AA92F0130F8000B
:100F3C000310F00DF10DF20DF30DF80B9E2F013097
:100F4C00F8007808FD07F31FAC2FAD2F9C2F013054
:100F5C00F8000310F90DFA0DFB0DFC0DF80BAF2F7B
:100F6C0073087702031DC42F72087602031DC42F69
:100F7C0071087502031DC42F70087402031CC72F5F
:100F8C00C82FD72F7008F4027108031C710FF502DB
:100F9C007208031C720FF6027308031C730FF7021E
:100FAC00791401300310F30CF20CF10CF00CFF3E31
:100FBC00031DD82F0130FD02031DE52FE62FAD2FA9
:100FCC007C08F3007B08F2007A08F1007908F00045
:100FDC0008000A128A11B6260A128A11A9000A12EE
:100FEC008A11B7260A128A11AA00AB0183010A12D0
:040FFC008A11242F03
:04400E00D520FF3F7B
:00000001FF
