:020000040000FA
:060000000A128A11F22F22
:100B7C0068340030831203138C1A0130080083127E
:100B8C0003138C1ECA2DCB2DC52D1A0808000A1272
:100B9C008A11F5250A128A11831603131114080001
:100BAC000A128A11F5250A128A11831603131115DC
:100BBC0008000A128A11F5250A128A11700883128C
:100BCC00031393000800F0007008831203139900BC
:100BDC0083160313981CF32DF42DEE2D08008316A9
:100BEC0003131419FA2DFB2DF52D11081F39031DB4
:100BFC00002E012EF52D0800831603138801831295
:100C0C0003138801D8308316031387008312031350
:100C1C0087010800831203132C080A128A11E92594
:100C2C000A128A118230F200DD30F100F10B1C2E19
:100C3C00F20B1C2E212E0800831603139A01193077
:100C4C00990018151812831203139817831603139F
:100C5C001813831203131816831603139816871789
:100C6C00071308000A128A11BF250A128A11003ACA
:100C7C000319412E422E532E0A128A11C5250A122F
:100C8C008A118312031388008230F100DD30F000EA
:100C9C00F00B4E2EF10B4E2E532E08008312031325
:100CAC002008A4002108A5002208A6002308A700FC
:100CBC0002300310A40DA50DA60DA70DFF3E031DBC
:100CCC005F2E2708F3002608F2002508F1002408FF
:100CDC00F0000030F7007A30F6001230F5000030EA
:100CEC00F4000A128A118C260A128A117008FF3E2F
:100CFC00831603139300940128308312031394007A
:100D0C008316031391018715071608000030FC00A9
:100D1C000030FB000030FA000030F9007308720458
:100D2C007104700403199B2E9C2EE92EFD01FD0A03
:100D3C00AC2E0130F8000310F00DF10DF20DF30D97
:100D4C00F80BA12E0130F8007808FD07F31FAF2E29
:100D5C00B02E9F2E0130F8000310F90DFA0DFB0D8B
:100D6C00FC0DF80BB22E73087702031DC72E720808
:100D7C007602031DC72E71087502031DC72E70085D
:100D8C007402031CCA2ECB2EDA2E7008F4027108E2
:100D9C00031C710FF5027208031C720FF602730824
:100DAC00031C730FF702791401300310F30CF20CCF
:100DBC00F10CF00CFF3E031DDB2E0130FD02031D78
:100DCC00E82EE92EB02E7C08F3007B08F2007A089E
:100DDC00F1007908F00008000A128A1102260A12A2
:100DEC008A11003083120313A3000130A200863055
:100DFC00A100A030A0000A128A1154260A128A11EE
:100E0C000A128A1122260A128A110A128A11CD2577
:100E1C000A128A11D030F0000030F1000A128A1147
:100E2C00DF250A128A111930F0000030F1000A1285
:100E3C008A11DF250A128A110730F0000030F10008
:100E4C000A128A11DF250A128A110A128A11D62572
:100E5C000A128A110A128A11CD250A128A11D0306F
:100E6C00F0000030F1000A128A11DF250A128A11F3
:100E7C001A30F0000030F1000A128A11DF250A1234
:100E8C008A110030F000F1000A128A11DF250A12D3
:100E9C008A110A128A11D6250A128A110A128A118B
:100EAC00CD250A128A11D030F0000030F1000A1260
:100EBC008A11DF250A128A113B30F0000030F10054
:100ECC000A128A11DF250A128A110030F000F10093
:100EDC000A128A11DF250A128A110A128A11D625E2
:100EEC000A128A110A128A11CD250A128A111B3094
:100EFC00F0000030F1000A128A11DF250A128A1163
:100F0C001830F0000030F1000A128A11DF250A12A5
:100F1C008A110A128A11D6250A128A110A128A110A
:100F2C00CD250A128A11D030F0000030F1000A12DF
:100F3C008A11DF250A128A116B30F0000030F100A3
:100F4C000A128A11DF250A128A110130F0000030D2
:100F5C00F1000A128A11DF250A128A110A128A116B
:100F6C00D6250A128A110A128A11CD250A128A1163
:100F7C00D030F0000030F1000A128A11DF250A127D
:100F8C008A113830F0000030F1000A128A11DF2586
:100F9C000A128A110130F0000030F1000A128A1195
:100FAC00DF250A128A110A128A11D6250A128A1111
:100FBC00053083120313A8002808AC000A128A110A
:100FCC0010260A128A110A128A1138260A128A115C
:100FDC00DE2F0A128A1100280A128A11BE250A1263
:100FEC008A11AD00A901AA01AB01AC0183010A125F
:040FFC008A11F22E36
:04400E00D520FF3F7B
:00000001FF
