:020000040000FA
:060000000A128A11F52F1F
:100D020014340A128A119E260A128A1183160313B8
:100D1200111408000A128A119E260A128A118316D9
:100D22000313111508000A128A119E260A128A114B
:100D32007008831203139300080083160313141917
:100D4200A32EA42E9E2E11081F39031DA92EAA2EF2
:100D52009E2E080083160313880183120313880151
:100D620018308316031387008312031387010800C8
:100D72000A128A11AB260A128A1100308312031357
:100D8200A3000130A2008630A100A030A0000A1208
:100D92008A1108270A128A110A128A1140270A1296
:100DA2008A1183120313A8002808A900CD2E0A1263
:100DB2008A1100280A128A119E260A128A118316A3
:100DC200031391150A128A119E260A128A1183129E
:100DD20003131308F200F3017208F4007308F5001C
:100DE2000A128A119E260A128A11700871040319C6
:100DF200FB2EFF2E831603139116022F8316031365
:100E0200911211167508F1007408F000080083129F
:100E120003132008A4002108A5002208A600230825
:100E2200A70002300310A40DA50DA60DA70DFF3ECD
:100E3200031D132F2708F3002608F2002508F100EE
:100E42002408F0000030F7007A30F6001230F50086
:100E52000030F4000A128A118F270A128A117008D0
:100E6200FF3E831603139300940128308312031369
:100E720094008316031391018715071608000A12BE
:100E82008A1182260A128A112930F0000030F100FC
:100E92000A128A1194260A128A110130F0000030D7
:100EA200F1000A128A11DB260A128A1170088312D3
:100EB200031388000A128A118B260A128A118230C1
:100EC200F700DD30F600F60B642FF70B642F692F65
:100ED2000A128A1182260A128A112830F000003082
:100EE200F1000A128A1194260A128A110130F000C6
:100EF2000030F1000A128A1194260A128A110A128B
:100F02008A118B260A128A118230F700DD30F60030
:100F1200F60B892FF70B892F8E2F08000030FC006B
:100F22000030FB000030FA000030F9007308720450
:100F32007104700403199E2F9F2FEC2FFD01FD0AEF
:100F4200AF2F0130F8000310F00DF10DF20DF30D8B
:100F5200F80BA42F0130F8007808FD07F31FB22F19
:100F6200B32FA22F0130F8000310F90DFA0DFB0D7B
:100F7200FC0DF80BB52F73087702031DCA2F7208F8
:100F82007602031DCA2F71087502031DCA2F70084D
:100F92007402031CCD2FCE2FDD2F7008F4027108CE
:100FA200031C710FF5027208031C720FF60273081C
:100FB200031C730FF702791401300310F30CF20CC7
:100FC200F10CF00CFF3E031DDE2F0130FD02031D6C
:100FD200EB2FEC2FB32F7C08F3007B08F2007A088A
:100FE200F1007908F00008000A128A1181260A121B
:0E0FF2008A11AB00AA0183010A128A11B92EDE
:04400E00D520FF3F7B
:00000001FF
