:020000040000FA
:060000000A128A110C280F
:10000800FE00030EF2000A08F3000A128A110B29F7
:100018000A128A110F280A128A118F210A128A11CC
:10002800F7000A128A1190210A128A11F800A00119
:10003800A101A201A301A401A501A601A701F9013B
:1000480083010A128A11B528F6007A283F308312F4
:1000580003138800B4280630831203138800B428D9
:100068005B30831203138800B4284F3083120313C4
:100078008800B4286630831203138800B4286D30D2
:10008800831203138800B4287D3083120313880079
:10009800B4280730831203138800B4287F308312F2
:1000A80003138800B4286F30831203138800B42820
:1000B8007730831203138800B4287C30831203132B
:1000C8008800B4283930831203138800B4281E30FE
:1000D800831203138800B42879308312031388002D
:1000E800B4287130831203138800B4287608F4000A
:1000F800F5017508003A03198228B4287408003AF3
:1001080003192A28013A03192F28033A0319342816
:10011800013A03193928073A03193E28013A031905
:100128004328033A03194828013A03194D280F3A7E
:1001380003195228013A03195728033A03195C286E
:10014800013A03196128073A03196628013A031985
:100158006B28033A03197028013A03197528B42843
:1001680008000A128A114F210A128A1103308312D9
:100178000313A9009730A800A80BC028A90BC02812
:10018800831203139F149F18CA28CB28CC289F14C6
:1001980077037804031DD128D228E52879080F3978
:1001A800A800A9012808A0002908A10020080A120F
:1001B8008A1128200A128A1183120313091489103C
:1001C800FE287908A80004300310A80CFF3E031D80
:1001D800E8282808A900AA012908A2002A08A300DB
:1001E80022080A128A1128200A128A11831203137C
:1001F8000910891479080702031803290429062914
:100208000915BA280911BA280A128A110C280B1CD8
:100218000E290F2929290630F1003030F000F00BA3
:100228001329F10B1329000083120313061C1D293F
:100238001E2922290130F00070088707861C25290D
:1002480026292829013087020B10831203130C1F5B
:100258002E292F2934291E08F0007008F9000C13E4
:100268000B1D37293829482977037804031D3D29B0
:100278003E294129F701F80145290130F7000030EE
:10028800F800FE3081000B1173088A00720E83009B
:10029800FE0E7E0E090001308316031385008312BB
:1002A8000313850103308316031386008312031397
:1002B80086018316031387018312031387018316AC
:1002C800031388018312031388018316031389011A
:1002D8000130831203138900013083160317880045
:1002E80089010330831603139600E8308B0003302E
:1002F800831203139F00831603139F010C178312A5
:1003080003130C135730831603138100FE30831236
:0A03180003138100080001340034D3
:04400E00D120FF3F7F
:00000001FF
