:020000040000FA
:060000000A128A110C280F
:10000800FE00030EF2000A08F3000A128A11FF2804
:100018000A128A110F280A128A1181210A128A11DA
:10002800FC000A128A1182210A128A11FD00F901C4
:10003800FA01FB0183010A128A11AF28F60074281D
:100048003F30831203138800AE280630831203134F
:100058008800AE285B30831203138800AE284F3027
:10006800831203138800AE286630831203138800B6
:10007800AE286D30831203138800AE287D308312BA
:1000880003138800AE280730831203138800AE28B4
:100098007F30831203138800AE286F308312031356
:1000A8008800AE287730831203138800AE287C308E
:1000B800831203138800AE28393083120313880093
:1000C800AE281E30831203138800AE2879308312BD
:1000D80003138800AE287130831203138800AE28FA
:1000E8007608F400F5017508003A03197C28AE2853
:1000F8007408003A03192428013A03192928033AF5
:1001080003192E28013A03193328073A0319382806
:10011800013A03193D28033A03194228013A031901
:1001280047280F3A03194C28013A03195128033A72
:1001380003195628013A03195B28073A031960285E
:10014800013A03196528033A03196A28013A031981
:100158006F28AE2808000A128A1141210A128A1152
:100168000630F8003030F700F70BB828F80BB8283D
:100178000000831203139F149F18C328C428C5289E
:100188009F147C037D04031DCA28CB28DB287B0829
:100198000F39F7007708F90079080A128A11222026
:1001A8000A128A118312031309108914F2287B0892
:1001B800F70005300310F70CFF3E031DDE28770813
:1001C8000739F8007808FA007A080A128A112220FA
:1001D8000A128A1183120313091489107B08070273
:1001E8000318F728F828FA280915B4280911B4289B
:1001F8000A128A110C280B1C022903291D29063012
:10020800F1003030F000F00B0729F10B072900004E
:1002180083120313061C1129122916290130F00034
:1002280070088707861C19291A291C29013087029A
:100238000B10831203130C1F2229232928291E08B7
:10024800F0007008FB000C130B1D2B292C293A29F0
:100258007C037D04031D312932293529FC01FD0168
:1002680039290130FC000030FD000B1173088A00A9
:10027800720E8300FE0E7E0E0900013083160313F2
:100288008500831203138501033083160313860048
:100298008312031386018316031387018312031342
:1002A80087018316031388018312031388018316B9
:1002B8000313890101308312031389000130831667
:1002C8000317880089010330831603139600E8306A
:1002D8008B000330831203139F00831603139F01BF
:1002E8000C17831203130C13473083160313810072
:0E02F800FE308312031381000800013400342D
:04400E00D120FF3F7F
:00000001FF
