:020000040000FA
:060000000A128A11FA2F1A
:100DAE00831203130708F000700787000708031D5E
:100DBE00E12EE22EE42E0130870008008312031389
:100DCE000808F000700788000808031DEF2EF02EAB
:100DDE00F22E01308800080083120313881FF82EAC
:100DEE00F92E0E2F8514880187010630F20013307C
:100DFE00F100AD30F000F00B022FF10B022FF20BD1
:100E0E00022F092F831203138510F501F601080036
:100E1E0083120313871F142F152F2B2F05148717DB
:100E2E00870188010630F2001330F100AD30F0007A
:100E3E00F00B1F2FF10B1F2FF20B1F2F262F8312DC
:100E4E0003130510F501F60108008316031385013F
:100E5E008312031385010130831603138600831258
:100E6E00031386018316031387018312031387016D
:100E7E008316031389018312031389018316031347
:100E8E0088018312031388018316031788018901D1
:100E9E0008008312031309140630F2001330F10018
:100EAE00AD30F000F00B592FF10B592FF20B592FDB
:100EBE00602F83120313091089140630F2001330C9
:100ECE00F100AD30F000F00B6A2FF10B6A2FF20B30
:100EDE006A2F712F83120313891009150630F20041
:100EEE001330F100AD30F000F00B7B2FF10B7B2FA8
:100EFE00F20B7B2F822F83120313091108000A12A3
:100F0E008A112C270A128A1183120313061C902FA2
:100F1E00912FA02F75087604031D962F972FA02FC3
:100F2E000A128A1150270A128A110130F500003078
:100F3E00F60083120313861CA52FA62FCC2F750344
:100F4E007604031DAB2FAC2FCC2FC62F8230F400AE
:100F5E00DD30F300F30BB12FF40BB12FB62F83124C
:100F6E0003138618BB2FBC2FC62F0A128A11D72641
:100F7E000A128A110A128A110F270A128A11831273
:100F8E0003138618CB2FCC2FAD2F061DCF2FD02FAE
:100F9E008B2F75037604031DD52FD62F8B2FF02F95
:100FAE008230F400DD30F300F30BDB2FF40BDB2F7C
:100FBE00E02F831203130619E52FE62FF02F0A12E6
:100FCE008A11E5260A128A110A128A11F3260A12CA
:100FDE008A11831203130619F52FF62FD72F8B2F95
:100FEE000A128A110028F501F60183010A128A11EC
:020FFE00862F3C
:04400E00D120FF3F7F
:00000001FF
