:020000040000FA
:060000000A128A110C280F
:10000800FE00030EF2000A08F3000A128A111528EE
:100018000A128A110F28F801F90183010A128A11BC
:100028005C28831203138C1D1A281B282A288C117C
:100038000A128A11B8200A128A11F1007108F80010
:1000480079080A128A11C8200A128A118312031326
:100058000C1F2F28302835281E08F1007108F900D8
:100068000C1373088A00720E8300FE0E7E0E0900C0
:100078002130831603138500831203138501831629
:1000880003138601831203138601013083160317B5
:10009800880089010330831203139F00831603131A
:1000A8009F018B170B170C17831203130C130800EF
:1000B8000A128A113C200A128A11F401F501F6018C
:1000C80024300A128A1194200A128A110A128A11FB
:1000D800AA200A128A110A128A1178200A128A1191
:1000E8006F280A128A110C28831203139F187D287F
:1000F8007E2893280D30F500FB30F400F40B82289D
:10010800F50B82288728831203139F140D30F500FE
:10011800FB30F400F40B8E28F50B8E28932808008A
:10012800F700831603138712771D9B289C28A028A5
:10013800760894008715A42874087604940087111B
:1001480077087504831203139400080083160313B9
:100158000C17831203130C138B170B1703309F0014
:10016800831603139F0108000A128A11C1200A127C
:100178008A11831203131308080083160313141C2F
:10018800C628C728C1280800F00070088312031386
:0401980093000800C8
:04400E00D120FF3F7F
:00000001FF
