:020000040000FA
:060000000A128A110C280F
:10000800FE00030EF1000A08F2000A128A115228B3
:100018000A128A110F28F50183010A128A112D2864
:100028000130831603138500831203138501013001
:100038008316031788000330831203139F00831667
:1000480003139F018B170B170C17831203130C1341
:1000580008000A128A1114200A128A110A128A1137
:1000680064200A128A110A128A1140200A128A117F
:1000780037280A128A110C280630F4003030F300B1
:10008800F30B4428F40B44280000831203139F1435
:100098009F184F28502851289F14080083120313D3
:1000A8000C1F572858285D281E08F0007008F50016
:1000B8000C1372088A00710E8300FE0E7E0E090072
:1000C800831603130C17831203130C138B170B17C8
:0C00D80003309F00831603139F010800F3
:04400E00D120FF3F7F
:00000001FF
